:020000040800F2
:10000000602C012049020008C59103089DE2020806
:10001000E58C030887310008F9C7030800000000D9
:100020000000000000000000000000001BA003080A
:10003000D151000800000000F9920308BDA7030891
:1000400063020008630200086302000863020008FC
:1000500063020008630200086302000863020008EC
:1000600063020008630200086302000863020008DC
:100070006302000863020008630200088D32000872
:1000800063020008630200086302000863020008BC
:1000900063020008630200086302000863020008AC
:1000A000630200086302000863020008630200089C
:1000B00091A80308630200086302000863020008B5
:1000C000630200086302000863020008630200087C
:1000D0006302000815B60308ADB603086302000802
:1000E000630200086302000863020008630200085C
:1000F000630200086302000863020008630200084C
:10010000630200086302000863020008630200083B
:10011000E9B40308630200086302000863020008F0
:10012000630200086302000863020008630200081B
:1001300000F002F800F079F80AA090E8000C824480
:100140008344AAF10107DA4501D100F06EF8AFF25D
:10015000090EBAE80F0013F0010F18BFFB1A43F0A5
:100160000103184758130700781307000A444FF09B
:10017000000C10F8013B13F0070408BF10F8014B06
:100180001D1108BF10F8015B641E05D010F8016B4B
:10019000641E01F8016BF9D113F0080F1EBF10F8AF
:1001A000014BAD1C0C1B09D16D1E58BF01F801CBD2
:1001B000FAD505E014F8016B01F8016B6D1EF9D555
:1001C0009142D6D37047000000230024002500266A
:1001D000103A28BF78C1FBD8520728BF30C148BFAA
:1001E0000B607047662900F049A7642900F05A8126
:1001F000782900F0BE81632900F0C386732900F0DE
:10020000C886002070471FB500F01CFC04000020C9
:1002100000213FF0F3FC401C6060002000213FF013
:10022000D7FCE0601FBD10B510BD01F081FC114688
:10023000FFF7E9FF3EF02AF901F0D2FE03B4FFF721
:10024000F2FF03BC3DF0BCFB09488047094800476A
:10025000FEE7FEE7FEE7FEE7FEE7FEE7FEE7FEE776
:10026000FEE7FEE704480549054A064B70470000D3
:100270003DA8030831010008601B0120602C01200B
:10028000601C0120601C0120704753EA020C00F042
:1002900069802DE9F04B4FF00006002B1FBFB3FA29
:1002A00083F503FA05F424FA05F65E4012BF1643FF
:1002B000B2FA82F502FA05F4C5F120051EBF22FA52
:1002C00005FC44EA0C04203556EA044C4FEA144479
:1002D00018BF641C4FF000084FF00009904271EB0A
:1002E000030C39D3002919BFB1FA81F701FA07F6D7
:1002F000B0FA80F700FA07F6C7F120071EBF20FA10
:1003000007FC46EA0C062037B6FBF4FCA7EB050712
:10031000103F07F01F0BCBF120060CFA0BFB2CFA59
:1003200006F644BFB3460026202FA4BF5E464FF01A
:10033000000B5BEA060C08BF4FF0010B19EB0B0931
:10034000ABFB027C48EB0608C01B06FB02CC0BFB98
:1003500003CC71EB0C01C1E70B460246414648460F
:10036000BDE8F08B13B54FF000004FF00001AFF384
:100370000080BDE81C40704710B54C1084EA53045F
:1003800004D54042C1F1000138BF491E1B4204D5CB
:100390005242C3F1000338BF5B1EFFF776FF14F033
:1003A000804F04D04042C1F1000138BF491E14F013
:1003B000004F04D05242C3F1000338BF5B1E10BD92
:1003C0000FB4044910B503AA029800F0E7FD10BC71
:1003D0005DF814FBC00500200FB41CB5084B06AA3D
:1003E0007B4469460090059800F0A9FD0446002072
:1003F000694600F0B7FD20461CBC5DF814FB000008
:10040000810B000070B5044685690068C10601D5FE
:10041000302600E02026C00707D070BDD4E90121B6
:1004200030469047206A401C20626D1EF6D570BD94
:1004300070B5044685690078C00707D170BDD4E95E
:10044000012120209047206A401C20626D1EF6D5B5
:1004500070BD70B50C460546012A05D02878800687
:1004600000D5EA69002302E0012305E05B1C93420A
:1004700002D2E05C0028F9D1A869E618C01AA86188
:10048000286A184428622846FFF7BCFF04E0D5E933
:10049000012114F8010B9047B442F8D32846FFF726
:1004A000C7FF70BD2DE9F04106460024106875298C
:1004B000314616A510D0AFF30080002802DA404282
:1004C00013A507E031688A0701D512A502E04907A4
:1004D00004D511A5012401E0AFF3008000210A2218
:1004E00006F1240709E0B0FBF2FCB0FBF2F302FBDB
:1004F0001C00303078541846491C0028F3D123469C
:100500002A463046BDE8F04100F0ABBA00000000DA
:100510002D0000002B00000020000000F0B40D466C
:100520000188090502D5214C7C4402E01F4C7C4423
:100530000E34002100F1240608E002F00F07120932
:10054000E75D42EA03721B097754491C52EA03072C
:10055000F3D102780023120704D5702D06D009B11B
:10056000022311342246F0BC00F07BBA0123103480
:10057000F8E770B504460D4621461068AFF30080D9
:10058000024629462046BDE870400023C6E7D21D3A
:1005900022F00703D3E90023C0E70368126843F0A1
:1005A000200303600823C3610023B7E7780B07002B
:1005B0002DE9F05F894604464FF0000ADFF874B178
:1005C000FB44C0F820A02046E1688847002874D08A
:1005D000252806D0D4E901219047206A401C2062DA
:1005E000F1E700265F462046E16888472028054657
:1005F00007DB312D05D2781910F8200C08B106431D
:10060000F1E7B00701D526F00406C4F81CA00027C6
:10061000C4F818A02A2D09D028463DF0CAF938B3ED
:1006200004EB8708303DC8F8185019E059F8041B4E
:10063000204604EB87029161E1688847012F054657
:1006400018D1E069002820DA26F020061DE0D8F84D
:10065000180000EB800005EB40003038C8F81800A7
:100660002046E168884705463DF0A3F90028EED111
:10067000012F0AD02E2D08D12046E16888477F1C23
:100680000546022F46F02006C4DBA069002803DAE5
:10069000404246F00106A061F00701D026F01006A6
:1006A0006C2D0BD0682D09D04C2D39D06A2D35D04A
:1006B000742D35D07A2D33D016E038E0E1682F461E
:1006C00020468847B842054609D16C2F26D04FF402
:1006D0008060E168064320468847054604E06C2FA9
:1006E0001AD04FF4807006430DB3A5F141001928CC
:1006F00002D8203546F400664A4629462046266040
:100700004E46FFF76FFD80B101280BD0F61D26F095
:10071000070000F1080956E74020E4E78020D8E709
:100720000020D6E706F104094DE7284652E7206A83
:10073000BDE8F09F080B07000FB400B58DB010A9FD
:10074000099000910B904FF0FF300A9000200C9020
:10075000064878440690064878446A4607900F9900
:1007600009A800F0AFFE0DB05DF814FB8F0D00007E
:10077000A70D0000014A00F0D5BE0000D8050020FA
:1007800030B505460B462A4613F8014B12F8010B0B
:1007900008B1A042F8D01CB1002802D06D1CF1E7CE
:1007A000284630BD40EA010310B59B070FD1042A4B
:1007B0000DD310C808C9121F9C42F8D020BA19BA2C
:1007C000884201D9012010BD4FF0FF3010BD1AB191
:1007D000D30703D0521C07E0002010BD10F8013BE6
:1007E00011F8014B1B1B07D110F8013B11F8014B0D
:1007F0001B1B01D1921EF1D1184610BD10B5431C30
:1008000002E010F8011B71B18107FAD14FF00132FB
:1008100002C88C1A8C4314EAC211F9D0C01A0A0615
:1008200003D0C01E10BDC01A10BD0A0401D0801E26
:1008300010BD0902FCD0401E10BD032A40F23080DA
:1008400010F0030C00F0158011F8013BBCF1020F11
:10085000624498BF11F801CB00F8013B38BF11F892
:10086000013BA2F1040298BF00F801CB38BF00F8A9
:10087000013B11F0030300F02580083AC0F0088026
:1008800051F8043B083A51F804CBA0E80810F5E70A
:10089000121D5CBF51F8043B40F8043BAFF30080ED
:1008A000D20724BF11F8013B11F801CB48BF11F862
:1008B000012B24BF00F8013B00F801CB48BF00F832
:1008C000012B704710B5203AC0F00B80B1E81850EA
:1008D000203AA0E81850B1E81850A0E81850BFF42A
:1008E000F5AF5FEA027C24BFB1E81850A0E81850C9
:1008F00044BF18C918C0BDE810405FEA827C24BF1D
:1009000051F8043B40F8043B08BF7047D20728BFAA
:1009100031F8023B48BF11F8012B28BF20F8023BF9
:1009200048BF00F8012B70474FF000020429C0F0C7
:10093000128010F0030C00F01B80CCF1040CBCF111
:10094000020F18BF00F8012BA8BF20F8022BA1EB63
:100950000C0100F00DB85FEAC17C24BF00F8012B48
:1009600000F8012B48BF00F8012B70474FF0000240
:1009700000B5134694469646203922BFA0E80C5095
:10098000A0E80C50B1F12001BFF4F7AF090728BF70
:10099000A0E80C5048BF0CC05DF804EB890028BFEC
:1009A00040F8042B08BF704748BF20F8022B11F015
:1009B000804F18BF00F8012B704700004FF0013C3A
:1009C00050F8042B51F8043B9A4221D1A2EB0C03BE
:1009D000934313EACC1317D150F8042B51F8043B7E
:1009E0009A4215D1A2EB0C03934313EACC130BD11B
:1009F00050F8042B51F8043B9A4209D1A2EB0C03A6
:100A0000934313EACC13DBD04FF00000704700BFD4
:100A1000D01A01BAB1FA81F101F0180122FA01F0FD
:100A2000CB40C1F12001DBB2C0B2C01A2CFA01F3F5
:100A3000D11A914311EAC311E6D17047704770474C
:100A400070477047004870471C1B012010B500F02C
:100A50008FFD006810BD10B5044600F089FD0460EC
:100A600010BD2DE9F0470D4699469246044600F127
:100A700024080168880604D5E06921F0100121608E
:100A800000E00120A84201DD471B00E00027A1692A
:100A90007A1902EB0900081AA0612078C00602D476
:100AA0002046FFF7AFFC002608E0D4E901211AF840
:100AB00006009047206A401C761C20624E45F4DBFD
:100AC0002078C0060AD52046FFF79CFC06E0D4E952
:100AD000012130209047206A401C2062381EA7F177
:100AE0000107F4DC07E0D4E9012118F8050090477C
:100AF000206A401C2062281EA5F10105F3DC204677
:100B0000FFF796FC2078000602D50220BDE8F087AA
:100B10000120FBE770472DE9FF4F0C461E464FF0C2
:100B2000FF378BB0D2E90001DDF860800A908A4679
:100B3000C1F30A5505B93D46002108464FF00000B3
:100B4000BAF1000F00F4400005DA00EB80004FF42A
:100B5000400101EA50004FEA9059B9F1010F00DD60
:100B6000B9460A9850EA4A000ED044F61050A5F251
:100B7000FF3545432F14B8F1000F1ED07542291ED2
:100B80001EDDC9F100021CE0B8F1010F4FF00000BA
:100B900001D0302103E0F24305E02154401CB04273
:100BA000FBDB30460022002121540B99C1F808805C
:100BB000C1E900200FB0BDE8F08FBD1B6D1CDEE762
:100BC0004A4600DA694206A800F01EFF06AB93E829
:100BD000070003AB83E8070050460A9901F02AFAA0
:100BE0008DE80700A0F500501F3800900398002DF5
:100BF0000ADD42F21F014A460844002303A903907C
:100C0000684601F0D5FC09E0A0F500504A461F38BF
:100C1000002303A90390684601F0F4FC8DE8070067
:100C20000004000C03D04FF0FF30410800E01046F4
:100C3000B8F1000F03D00022009215461EE0751E89
:100C400005D400F099FC303262556D1EF9D5B346DB
:100C50000122084302D000227F1C04E020783028C3
:100C600001D100227F1E002A099784D01DE0112D9A
:100C700007DA00F081FC303262556D1C50EA010247
:100C8000F5D1084302D00098C8B10EE00021681EDB
:100C900005E0235C625C63542254401E491C81427F
:100CA000F7DBAB46A81B401E0990002004F80B00A0
:100CB0000B98099AC0F80880C0E9002B7AE7112642
:100CC0004FF0000857E72DE9F04F88460446D21D43
:100CD00022F0070191B0D1E90001CDE90A013CF011
:100CE00075F902460B98C00F01D02D2007E020684F
:100CF000810701D52B2002E0202101EAC000032A50
:100D0000099001D0072A05DB03464146204600F042
:100D100081FC0BE12078800601D5E06900E0062027
:100D2000B8F1650F814606D0B8F1660F18D0B8F15A
:100D3000670F70D131E00020B9F1110F009001DB95
:100D4000112301E009F101030AAA01A90CA8FFF788
:100D5000E2FEDDE90C70002609F10105834647E05B
:100D600001204B4600904FF000470AAA01A90CA8A9
:100D7000FFF7D1FEDDE90DB00C995D46002610B9F4
:100D800009F101000D18B9EB050003D4C0F1FF36DD
:100D900009F10105A5EB09002BE0B9F1010F01DA1A
:100DA0004FF001090020B9F1110F0090484601DD14
:100DB000112300E003460AAA01A90CA8FFF7ABFE25
:100DC000DDE90C704D4600268346207800070AD4E2
:100DD000AB4500DA5D4601A8012D04DD411911F88B
:100DE000011C302907D04F4502DA17F1040F04DA4D
:100DF000012082460FE06D1EEEE7002F02DCED1BA6
:100E00003E4403E0781CA84200DD7D1CB81B00F1C5
:100E1000010A4FF000472078000703D4AA4501DB00
:100E20004FF0FF3A0021B7F1004F0DF143088DF864
:100E3000431024D002202B23002F01DA7F422D23E0
:100E40000A21021EA0F1010000DC5FB197FBF1FC5A
:100E500097FBF1F201FB1C7C17460CF1300C08F8F3
:100E600001CDEEE7A8F1010003702188090501D545
:100E7000452100E06521A0F1010800F8011C099856
:100E80000FA9A1EB0807FF1D00B10120411901EBDB
:100E9000EA70A1693844081A401EA0612078C00693
:100EA00002D42046FFF7AEFA099828B1D4E901210F
:100EB0009047206A401C20622078C00622D5204638
:100EC000FFF7A0FA1EE0002E04DBB34502DD01A807
:100ED000805D00E03020D4E901219047206A401C69
:100EE0002062761CAAF101005FEA000A0AD1FFF72E
:100EF000A9FDC0680168405CD4E901219047206ADF
:100F0000401C2062281EA5F10105DCDC07E0D4E9C5
:100F1000012118F8010B9047206A401C2062381EFE
:100F2000A7F10107F3DC2046FFF782FA032011B096
:100F300041E6000001694A1C02610878704700B56B
:100F40008FB0CDE901310021059105497944CDE902
:100F5000031011466846FFF72BFB0FB000BD0000E1
:100F6000E5FFFFFF0A6802F8010B0A60704710B541
:100F7000436913B1AFF3008001E0FFF76AFA012083
:100F800010BD127800F124010A7000224A7001227B
:100F9000EDE711684FF0FF32E9E70000074B70B54D
:100FA0000D467B44FFF7CBFF0446284600F09EFD2C
:100FB00010B14FF0FF3070BD204670BDE3D3030089
:100FC0002DE9FF4F06468BB00878FF2806D0491C54
:100FD0002D2805D000244FF0000908E000200CE087
:100FE0000124F8E709EB8903491C00EB4309087861
:100FF000FF28F7D114B1C9F100008146107800250F
:101000002C46AA4629462D2801D02B2804D1521C53
:101010002D2813D0002082468B461078FF280FD051
:101020004FF0000C0A21521CA5FB017804FB018142
:1010300005FB0C11C5194BEB0104EEE70120EAE7B3
:10104000002108464FF00000BAF1000F02D000EB7B
:1010500080004008C0F38157012F01DD4FF0FF37BA
:101060000E9955EA040009EB01080BD04FF0020974
:1010700018F5FA7F16DA4FEACA70002F706008DDA3
:10108000012007E04FEACA70C6E900B00FB0BDE822
:10109000F08F0020306000F06BFAC0F8009018214B
:1010A000084616E0B8F5FA7F18DD002F02DAF74897
:1010B000784401E0F6487844D0E90010C6E9001011
:1010C00040EACA70706000F053FAC0F80090142132
:1010D00008460FB0BDE8F04F3FF091BF0021084631
:1010E0004FF00000B8F10001099002DAC7F10002E8
:1010F00000E03A4601DAC8F1000106A800F084FCDD
:1011000006AB93E8070003AB83E8070044F23E0018
:101110005BEA04010090584604D144F21E012C46BB
:101120005D460091210C0904014306D10099240475
:1011300044EA15442D041039009104F07F41014325
:1011400006D10099240244EA15642D020839009161
:1011500004F07041014306D10099240144EA15745A
:101160002D01091F009104F04041014306D100996F
:10117000A40044EA9574AD00891E009104F000417A
:10118000084304D100986D196441401E00904FF04F
:1011900001033A466846B8F1000FCDE9014503A9BD
:1011A00002DD01F044FA01E001F017FABAF1000F94
:1011B00004460D4601D084F00044002108464FF05B
:1011C0000000099940F2FF77484010F00C0F07D15A
:1011D00024F00040284303D0C4F30A50B84212D18F
:1011E00000F0C6F9C0F80090C4F30A50B8420AD122
:1011F000A8487844D0E90010C6E9001004F0004186
:101200000843706042E7C6E900543FE72DE9FF4F0D
:101210001F464FF0000A4FF0FF38454691B0D7E91E
:101220000146CDF83CA0FFF70DFCC0680168405CAA
:101230001090B96912986D1C8847396A81468847B1
:101240000028F6D1B9F1FF3F0AD0002E24F4D06473
:1012500011DDB9F12B0F08D0B9F12D0F0BD102E040
:10126000404615B013E744F48064B96912986D1CC8
:101270008847761E8146600504A901D52D2000E02F
:101280002B20002E01F1010B0DF130088DF810001C
:101290003FDDB9F1690F08D0B9F1490F05D0B9F1B7
:1012A0006E0F02D0B9F14E0F1CD13B4601A800953C
:1012B00080E85002DDE912126FF002003FF06AFF91
:1012C000C11CCED10EE0B96912986D1C88478146C9
:1012D0001398761E44F4007405600F98401C002E8D
:1012E0000F9016DDB9F1300FEDD0B9F1780F02D0C3
:1012F000B9F1580F0DD10F9801280AD13B46CDE91D
:101300000054DDE91212001F02963FF041FFC11C9C
:10131000A7D1109989453ED144F0800406E0139985
:10132000681CAAF1010A44F400740860B9696D1CD4
:101330001298761E884730288146F0D02BE010990D
:10134000894505D1200603D4761E44F0800418E0B8
:1013500048463CF02EFB08B3761E0DF123018B4569
:1013600044F4007408D2A9F130000BF8010B2006F8
:1013700007D5AAF1010003E0200602D40AF101001A
:101380008246A00502D51399681C0860B9691298B5
:101390006D1C88478146002ED1DC53E0002E51DDC4
:1013A000B9F1650F02D0B9F1450F4BD1A00549D570
:1013B000B9696D1C1298761E24F440748847002E7B
:1013C00081460CDD2B2804D0B9F12D0F07D144F450
:1013D0008074B96912986D1C8847761E8146E005B5
:1013E00001D52D2100E02B2108F8011BCDF800804C
:1013F00021E0761E0DF13901884544F400740CD2C9
:10140000A9F1300010F0FF0088F8000002D1009927
:10141000884509D908F1010806E0E00501D51E4814
:1014200001E042F20F708246B96912986D1C88473C
:10143000814613980560002E04DD48463CF0B9FA59
:101440000028D6D1F96912988847FF2053468BF8B7
:10145000000088F8000000200A900B9004AA0CA954
:101460000AA8FFF7ADFDA00502D46FF00100F8E671
:1014700014F0240F12D0E0071CD13868DDE90A12FD
:10148000031D3B600068C0E9001213E03004070050
:1014900022040700E6020700F1D8FFFF0AA9684608
:1014A0003CF016FAE00705D13868009A011D396052
:1014B000006802602846D4E602681144137801608F
:1014C00018467047D160054979445161044979440F
:1014D000116200211161114600F0DCB8EDFFFFFF41
:1014E00031010000426842B1016811F8013B23B1AB
:1014F000521EC0E90012184670470121C160881EC3
:10150000704742685AB1C368016843B983688B4227
:1015100005D0491E521CC0E90012002070474FF050
:10152000FF3070472DE9F04115460E46040002D108
:101530002C6804B90BA4204600F0ECFA044420788F
:1015400070B127463146384600F0D4FA044420787A
:1015500010B1002004F8010B38462C60BDE8F08182
:101560000027F9E70000000000487047FC1A01203E
:1015700000487047FC1A012030B5B0F10A024FEA6A
:10158000900E71F100034EEA817EB0EB0E0061EB2C
:1015900091014FEA101E4EEA017E10EB0E0041EB66
:1015A00011114FEA102E4EEA016E10EB0E0041EBC6
:1015B00011214FEA104E4EEA014E10EB0E0041EBA6
:1015C0001141401841F100014FEAD00040EA41705A
:1015D0004FEAD10110EB80054FEA810444EA907490
:1015E00044EB01046D1944EB0404521BA3414FF07A
:1015F000000348BF0A3200D530BD401C41F1000154
:1016000030BD10B5044600F0B9FA0068005D00F086
:10161000010010BD2DE9F0411F4604460326016874
:10162000072A01F4006004DB08B116A505E016A541
:1016300003E008B115A500E015A521F01000206019
:10164000A069C01EA0610FB1401EA0612046FEF738
:10165000D9FE4FB1D4E9012138469047206A401C99
:101660002062C01C206206E0206AFAE7D4E901216A
:1016700015F8010B9047761EF8D22046FEF7D8FEEB
:10168000BDE8F0814E414E006E616E00494E46004D
:10169000696E66002DE9F34F4FF0000A0C4656467E
:1016A0008DB001200C9001F10C000B9062690B9839
:1016B00001219047051E2DD0252D2CD0216A884769
:1016C000C0B162690B9801219047216A88470028C0
:1016D000F7D16269411E0B98904700E0761CA16922
:1016E0000D988847216A88470028F7D1E1690D984D
:1016F0008847DBE7A1690D988847A842074601D1D2
:10170000761CD3E7E1690D9888477F1C02D1BAF1B6
:10171000000F6FD06BE162690B9800273D46394698
:1017200090472A2804D162690B980121904701252E
:10173000DFF8D08262690B9801219047A0F1300157
:101740000A290AD24745E5DC07EB870100EB410790
:10175000303FDFD445F01005ECE7E90601D46FF027
:1017600000476C280AD04C2814D0682815D06A2865
:101770000DD074281CD07A281AD01DE062690B980D
:10178000012190476C2802D045F0040514E045F093
:1017900002050DE045F020050AE062690B98012181
:1017A0009047682802D045F0080505E045F400653B
:1017B00062690B9801219047C4E9015765283DD023
:1017C00019DC58287AD00CDC452837D004DC2528D1
:1017D00026D041289ED131E046282FD0472899D1E4
:1017E0002CE05B2877D0612828D063287CD064283F
:1017F00023D15AE0F6E06F2848D008DC66281DD0D7
:1018000067281BD0692821D06E2816D127E07028C0
:1018100045D0732868D0752847D078280DD14DE081
:10182000A1690D988847252805463FF469AFE1690D
:101830000D9888476D1C3FF46AAFD8E00D99234698
:101840006A466FF001003FF0A1FCC5E045F04000A2
:1018500023464FF000026060A80736D43EE0E80758
:101860007FF447AF2068011D21600068290501D57C
:1018700006701BE7290701D5068017E7A90703D5DE
:10188000F117C0E9006111E706600FE745F040007D
:1018900023464FF008026060A80716D41EE040F609
:1018A0000E0125EA0100606016E045F04000234685
:1018B0004FF00A026060A80707D40FE045F040002F
:1018C0006060A80708D5234610220D996FF001002B
:1018D000AFF3008080E007E0102223460D996FF0FF
:1018E0000100AFF3008077E04FF0000963284F4616
:1018F000C8464B46CB4602D05B2806D038E0E80607
:1019000001D40120A060012732E06269D4F80CB054
:101910000B98012190475E2807D14FF001094946F5
:101920006269D4F80CB00B989047216939B900214D
:101930000A4603AB43F82120491C0829FADBD8B337
:10194000216949B308F1010862690B9801219047A8
:101950005D28F4D1B9F1000F09D0002003A951F896
:101960002020D24341F82020401C0828F7DB03AB9D
:101970002069002820794FEA40701ED05B4622463D
:10198000CDF80080CDE901970D9900286FF0010096
:1019900020DAAFF300801FE0C11703AA00EBD1618A
:1019A0004B1121F01F0102EB8302411A1368012041
:1019B000884003431360C7E719E00D9922460028C9
:1019C0006FF00100009702DAAFF3008004E0AFF39C
:1019D000008001E0AFF3008000280ADA401C06D145
:1019E0000C9820B14FF0FF300FB0BDE8F08F50469B
:1019F000FAE7E90701D10AF1010A064400200C9038
:101A000054E60000CCCCCC0C2DE9F04781461646BC
:101A10008AB0354878440DC88DE80D0032487844C6
:101A2000801C03AC0DC884E80D0041F69B300844CF
:101A3000372190FBF1F290FBF1F5A5F1800501FB58
:101A400012041B3C02D56442012000E00020DFF8B4
:101A500098A080460027FA44AAF1BE0A0EE0E007EB
:101A60000AD03246684607EB470101230AEB8101A1
:101A700000F0C8FD8DE8070064107F1C002CEED13B
:101A8000194F7F44AE3F19E0E80715D007EB04106B
:101A90000DF1180A90E80E008AE80E00C068F042C6
:101AA00001D1981908903246012306A903A800F035
:101AB000A9FD03AB83E807006D10641C002DE3D182
:101AC0004FF0010332466946B8F1000F03A802D077
:101AD00000F06EFD01E000F095FDC9E90001C9F8D4
:101AE00008200AB0BDE8F0873CFA0600007B00F051
:101AF0008000704730B503461D781DB10A4603E0EB
:101B0000AC4201D1181A30BD12F8014B002CF7D1AC
:101B10005B1CF1E730B503461D783DB10A4612F86B
:101B2000014B1CB1AC42FAD15B1CF5E7181A30BD71
:101B30007546FFF719FDAE4605006946534620F08D
:101B40000700854618B020B5FEF78CFBBDE82040A5
:101B50004FF000064FF000074FF000084FF0000B69
:101B600021F00701AC46ACE8C009ACE8C009ACE81C
:101B7000C009ACE8C0098D467047000010B5FEF7FB
:101B800061FF001D10BD00BF75E003002DE9FF4F90
:101B90001F464FF03C0987B04FF00042DDE91410BA
:101BA00001F10108DDF858A002EA4050039000203E
:101BB00005908346054604460490B969461E089878
:101BC0008847AAF1010A0290BAF1000F3BDD0298A2
:101BD0002E2815D0102100F01FFA00282EDB4FF020
:101BE000010B0599014317D0B9F1000F0BDB4A46F1
:101BF000C11700F0FEF905430C43A9F1040905E003
:101C0000012004900BE008B145F00105012005908A
:101C1000049820B9361D02E0049800B1361FB96956
:101C2000089808F101088847BBF1000FAAF1010AE2
:101C30000290C9D00999C1F80080C5E702987028C0
:101C400008D0502806D0F96908988847BBF1000FE2
:101C500014D04FE0002002900120BBF1000F04904F
:101C600009D0B969089808F101088847AAF1010963
:101C7000B9F1000F07DCF969089888476FF0010097
:101C80000BB0BDE8F08F2B2804D02D280CD14FF0DD
:101C9000FF300490B969089808F101088847A9F154
:101CA0000109B9F1000FE6DD411CE4D00A2100F082
:101CB000B3F90028DFDB029908F1010801EB81018B
:101CC00000EB41000290B969089888470A2100F0AA
:101CD000A3F9099AA9F10109B9F1000FC2F800802E
:101CE00001DD0028E7DAF969089888470499029825
:101CF00000FB016655EA040004D004F040410900ED
:101D000002D006E0039898E0A40044EA9574AD0080
:101D1000B61E04F00041080002D16D196441761E20
:101D2000159810F0240F03D04FF00B095C4803E026
:101D30004FF028096FF07D008246564507DAAAEB7E
:101D400006018944B9F1410F01DD4FF0410901203D
:101D50000021A9F1010200F04CF9024628400B468F
:101D60002140084301D0012100E00021501E0291D2
:101D700043F1FF3128402140084301D0012000E019
:101D800000200299834651EA0B014FD000210846FA
:101D90004FF00000039900F4400039B100EB8000DF
:101DA0004FF4400100EBD07001EA6000801501287B
:101DB00002DD4FF0FF3000E013D0401C36D0029817
:101DC00060B3BBF1000F0CD14A460120002100F0A6
:101DD00010F928402140084301D0012000E00020F4
:101DE000E0B101204A46002100F003F90346401902
:101DF0000A4661412D1A8C4111D3B9F1400F09DD1A
:101E0000159810F0240F02D0AAF1340603E0AAF1CD
:101E1000170600E0761C00254FF0004406E05B1E2C
:101E200042F1FF3220EA030521EA0204CAF101006F
:101E3000B04206DA1B490398084301900020009045
:101E40000EE0039AC4F3D321E80A0A43164940EA94
:101E500044500A433146CDE9000268463BF09EFDFE
:101E6000159810F0240F0BD01598C00715D13868BD
:101E7000DDE90012031D3B600068C0E900120CE0C0
:101E800002A869463BF024FD1598C00705D13868C3
:101E9000029A011D3960006802604046F0E60000C9
:101EA00002FCFFFF0000F07F0000F03F2DE9FF4F34
:101EB00092461D4685B04FF00041DDE9124BDDE949
:101EC00014727F1E01EA4B50414940F0FF4940EA3D
:101ED0000108002122F020004928049102D04E2858
:101EE00028D04CE03BA0012607C88DE80700A9696F
:101EF0000698641C88477F1E014606D41DF806001C
:101F000018B121F0200181420BD0E9690698884779
:101F1000032E34D0082E32D06FF0010009B0BDE896
:101F2000F08F761C032E01D0082EE0D1601CCAF879
:101F30000000DCE7A9690698641C88477F1E2AD444
:101F400020F02000412826D1A9690698641C884702
:101F50007F1E20D420F020004E281CD1A9690698AD
:101F6000641C88477F1E48F4002849F48009CAF899
:101F7000004001D4282806D0E969069888475FEA1E
:101F8000CB7012D022E0A9690698641C88477F1E96
:101F900001D4002803DAE96906988847BCE72928B4
:101FA000F1D1641CCAF80040E9E71BF0240F07D008
:101FB00028680499031D2B600068C0E9001805E03B
:101FC0002868021D2A600068C0F800902046A5E736
:101FD0000000F07F494E46494E4954590000000028
:101FE00010B50446AFF300802046BDE81040FEF770
:101FF00025B9B2F120030AD5C2F1200301FA02F19A
:1020000020FA03F300FA02F041EA0301704700FAF4
:1020100003F14FF0000070473A2800D2303820F02A
:102020002002412A01D3A2F13700884201D34FF0A8
:10203000FF3070475FEA400C08BF91F0000F4FEA95
:102040008C234FEAC12243EA51514FEA1C5018BF7A
:1020500000F5F0404FEA300018BF41F000415FEA60
:102060006C5C00F02980BCF1FF3F08BF40F080406D
:102070007047130C06BF12044FF0100C4FF0000C09
:10208000130E04BF12020CF1080C130F04BF12014F
:102090000CF1040C930F04BF92000CF1020CD30F4F
:1020A00004BF52000CF1010C11464FF00002A0F1E8
:1020B0001F00A0EB0C00704711F0004F08BF7047E5
:1020C00031F000413FF4D5AF0B0C06BF09044FF0CF
:1020D000100C4FF0000C0B0E04BF09020CF1080CA1
:1020E0000B0F04BF09010CF1040C8B0F04BF890016
:1020F0000CF1020CCB0F04BF49000CF1010CCCF128
:102100002003A0EB0C0022FA03F302FA0CF241EADE
:10211000030100F10100704720F07F4C80EA0300CA
:1021200023F07F47ACEB070303F57C5300F000403E
:1021300003F1FF032DE980494FEA154B09B44FEA3B
:10214000144325EA0B4E24EA03480FF2042606EB5B
:10215000132749083E785FEA320203FB0667C7F59A
:10216000000707FB06F64FEA54374FEAD64606F15A
:10217000020607FB066CCCF1005C4FEA1C472CEA18
:10218000074C07FB06F40CFB06F504EB15464FEA7B
:10219000961634BF00204FF000404FEAD13706FBBF
:1021A00007FC4FEA1C4C0CFB0BF7D21B03FB0CF794
:1021B00061EB07010CFB0EF7B0EB074072EB174227
:1021C0000CFB08F734BFA2EB0742B2EB074261EB0E
:1021D00017414FEA0C444FEA910706FB07FC4FEA10
:1021E0001C4C0CFB0BF7B0EBC74072EB573203FBF8
:1021F0000CF734BFA2EBC742B2EBC74261EB5731D9
:102200000CFB0EF7B0EBC70072EB57720CFB08F734
:1022100034BFA2EBC702B2EBC70261EB5771039F59
:102220004FEA816141EA921104EBCC044FEAD137C5
:102230004FEA826206FB07FC42EA90124FEA806096
:102240004FEA1C4C0CFB0BF7D21B03FB0CF761EBAA
:1022500007010CFB0EF7B0EB074072EB17420CFBCB
:1022600008F734BFA2EB0742B2EB074261EB17411C
:102270004FEA8C554FEA910704EB9C2406FB07FCC0
:102280004FEA1C4C0CFB0BF7B0EBC74072EB57321C
:1022900003FB0CF734BFA2EBC742B2EBC74261EBC2
:1022A00057310CFB0EF7B0EBC70072EB57720CFB0B
:1022B00008F734BFA2EBC702B2EBC70261EB57715C
:1022C00015EB4C254FEA816141EA92114FEA826297
:1022D0004FEAD13742EA901206FB07FC44F10004B2
:1022E0004FEA80604FEA1C4C0CFB0BF7D21B03FB40
:1022F0000CF761EB07010CFB0EF7B0EB074072EB3C
:1023000017420CFB08F734BFA2EB0742B2EB0742BF
:1023100061EB174115EB1C154FEA813141EA9241FF
:102320004FEA823242EA90424FEA80304FEA0C761E
:1023300044F1000448EA03434EEA0B484FF0000E14
:10234000B2EB080C71EB030724BF624639464EEB33
:102350000E0E4FF0000B0018524149414BEB0B0B96
:10236000B2EB080C71EB03077BF1000B24BF624654
:1023700039464EEB0E0E4FF0000B0018524149410A
:102380004BEB0B0BB2EB080C71EB03077BF1000B73
:1023900024BF624639464EEB0E0E51EA020718BFC3
:1023A00046F0010616EB0E7655F1000254F10001DD
:1023B00003D5BDE88901BDE80088BDE88901BDE815
:1023C0000048B619524141EB0101A3F101037047E6
:1023D00080807F7E7D7C7B7A797877767675747362
:1023E000727171706F6E6E6D6C6C6B6A6A69686821
:1023F000676666656464636362616160605F5F5EB7
:102400005E5D5D5C5C5B5B5A5A595958585757562C
:102410005655555554545353525252515150505091
:102420004F4F4F4E4E4D4D4D4C4C4C4B4B4B4A4AE3
:102430004A49494948484847474747464646454527
:102440004544444444434343434242424241414160
:1024500046EA0646A3F570534FEA164646EA425648
:102460004FEAD22242EA415210B54FEAD121A3F1FC
:10247000010300F02FF820F0004000F1020C00F002
:10248000004701EB00501146BCF5006F40EA070021
:1024900000D210BDBAF1000F0AD01CB503B44FF042
:1024A00004004FF004014FF000000FBCBDE81040E5
:1024B0004FF00001BBF1010FB9BF04484FF0FF31ED
:1024C0000348002140EA070010BD00BFFFFFEF7F77
:1024D0000000F07F002B9C4630D477002BD01CB539
:1024E0004FEA370703B44FF010004FF01001BAF174
:1024F000000F06D0BCF1000FDCBF40F0080040F038
:1025000008014FF000000FBCBDE810400BF1010BBB
:10251000BBF1010F08BF5FEA170722BF12F10102EA
:1025200011F101014FF0004143F1000300F00040C0
:1025300043EA00007047F9D35708D0E746EA064659
:1025400013F1400F4FEA16461FDD13F1200FDFBFD6
:1025500016430A46002120335B42BED0C3F1200758
:1025600046EA064602FA07F74FEA164646EA070623
:10257000C3F1200722FA03F201FA07F721FA03F167
:102580004FF0000342EA0702A7E746EA020646EADE
:1025900006464FEA164646EA0106BCBF46EA06462C
:1025A000360C4FF000034FF000024FF0000194E7AB
:1025B0002DE9804C9A46934670B491E8380007C8DC
:1025C00031EA400C48BF34EA430C03D5FFF7A4FDC1
:1025D000FFF780FFF0BCBDE8008C2DE9804C9A46E7
:1025E000934670B491E8380007C831EA400C48BF00
:1025F00034EA430C03D5FFF78FFDFFF729FFF0BC4A
:10260000BDE8008C2DE9804C9A46934670B491E861
:10261000380007C810F0804F08BF13F0804F03D177
:1026200000F01AF8FFF756FFF0BCBDE8008C2DE96A
:10263000804C9A46934670B491E8380007C810F071
:10264000804F08BF13F0804F03D100F005F8FFF76B
:10265000FFFEF0BCBDE8008C20F07F4780EA03005D
:1026600023F07F4C07EB0C03A3F57C5300F00040F4
:10267000A3F1FE0392F0000F00F0B38095F0000F7D
:1026800000F077802DE901494FEA11404FEA1446E6
:1026900021EA004800FB06FC24EA064708FB06F690
:1026A00007FB08F800FB07F718EB06484CEB164C45
:1026B0004FEA124B18EB07484FEA15464CEB174010
:1026C00022EA0B4E0BFB06FC25EA06470EFB06F63C
:1026D00007FB0EFE0BFB07F71EEB064E4CEB164CF2
:1026E0004FF000061EEB074E4CEB174B18EB0B0898
:1026F00040F1000018EB0E0B58EB000840F1000011
:102700008F1A4FF000013CBFC943661B14BFB5EBE5
:10271000040C00213CBFC943F61B4FEA17444EEAA4
:102720008E0E27EA04454FEA1C4704FB07622CEA99
:10273000074C05FB07F70CFB05F604FB0CFC16EB3E
:10274000074642EB174216EB0C4642EB1C421BEBD2
:10275000060658EB0202414146EA9E0601D5BDE855
:102760000189B619524141EB0101A3F10103BDE812
:1027700001894FEA14454FEA114724EA054621EA48
:10278000074C05FB07F406FB07F70CFB06F105FBFE
:102790000CFC11EB074144EB17444FEA124711EBD5
:1027A0000C4144EB1C4422EA074C05FB07F206FBF4
:1027B00007F70CFB06F605FB0CFC16EB074642EB95
:1027C000174216EB0C4642EB1C456A1854F1000107
:1027D00048BF7047B619524141EB0101A3F1010313
:1027E000704795F0000F37D04FEA11424FEA144777
:1027F00021EA024624EA074C02FB07F106FB07F731
:102800000CFB06F402FB0CFC14EB074441EB1741F4
:102810004FEA154714EB0C4441EB1C4125EA074CE9
:1028200002FB07F506FB07F70CFB06F602FB0CFCA8
:1028300016EB074645EB174516EB0C4645EB1C42DD
:10284000121951F1000148BF7047B619524141EBCE
:102850000101A3F1010370474FEA14454FEA114704
:1028600024EA054621EA074C05FB07F106FB07F7BA
:102870000CFB06F24FF0000605FB0CFC12EB0742C6
:1028800041EB174112EB0C4251EB1C4148BF704722
:10289000921841EB0101A3F101037047002904D014
:1028A000816841F0010181607047816821F0010178
:1028B00081607047002904D0816841F48071816093
:1028C0007047816821F48071816070470146002063
:1028D0008968490700D501207047014600208968B2
:1028E000090700D50120704710B542680E4B1A4009
:1028F0000C790B6842EA04221343436082680B4B55
:102900001A40D1E9024323434C7942EA440213437B
:102910008360C26A22F47002097C491EC9B242EA8D
:102920000151C16210BD0000FFFEF0FFFDF7F1FF95
:1029300070B5072609290AD9C568A1F10A0404EB74
:102940004404A640B543A3401D43C56007E00569A4
:1029500001EB4104A640B543A3401D4305611F237D
:10296000072A09D2446B521E02EB820293409C4319
:1029700091400C43446370BD0D2A09D2046BD21FF1
:1029800002EB820293409C4391400C43046370BD70
:10299000C46A0D3A02EB820293409C4391400C437F
:1029A000C46270BD816841F00801816070470029F0
:1029B00004D0816841F4A00181607047816821F4EE
:1029C000A00181607047816841F004018160704717
:1029D000704700002DE9F04F91B0012148F214201A
:1029E00036F040FF4FF4404036F016FF4FF4805071
:1029F000ADF8400048208DF8430010A9724804F05B
:102A0000FDFC8026ADF8406003278DF8427000245D
:102A10008DF8434010A96D4804F0F0FC0B948DF83C
:102A2000304001258DF831504FF4602BCDF834B093
:102A30000E948DF83C50DFF898810BA94046FFF7C3
:102A400053FF0723012219464046FFF771FF01217A
:102A50004046FFF72FFF14203BF082FC0121404647
:102A6000FFF71CFF14203BF07BFC4046FFF79AFF6A
:102A70004046FFF732FF0028FAD14046FFF7A3FF98
:102A80005348FFF723FF0028FAD114203BF068FCDD
:102A90000121084636F0CAFE4E4800F039FC4C4889
:102AA0004C3000904C480190029403950494059694
:102AB0004FF48078CDF818804FF48069CDF81C90E1
:102AC0004FF0200ACDF820A009940A9469464148A5
:102AD00000F0A7FC01213F4800F00CFC01213C481C
:102AE000FFF765FF14203BF03BFC0220ADF84000EF
:102AF0008DF842708DF8434010A9344804F07EFCF4
:102B00000B948DF830408DF83150CDF834B00E94E0
:102B10008DF83C50314F0BA93846FFF7E5FE0122F6
:102B2000072311463846FFF703FF01213846FFF718
:102B3000C1FE14203BF014FC01213846FFF7AEFE25
:102B400014203BF00DFC3846FFF72CFF3846FFF70A
:102B5000C4FE0028FAD13846FFF735FF3846FFF7A4
:102B6000B5FE0028FAD114203BF0FAFB0121022027
:102B700036F05CFEDFF868B0584600F0C9FB174835
:102B80004C3000901448801E0190029403950494E8
:102B90000596CDF81880CDF81C90CDF820A00994AA
:102BA0000A946946584600F03CFC0121584600F062
:102BB000A1FB01213846FFF7FAFE14203BF0D0FBC1
:102BC00011B0BDE8F08F0000001001400008014086
:102BD00000240140080002402A000020003C01407F
:102BE000580402402DE9F04137F018FA012845D089
:102BF0004148424E00270078F0B3B7707089002832
:102C00003CD0B178C82939D330303DF054FB3C4A30
:102C10003C4B3DF0E5FB04460D4630893DF04BFB57
:102C20004FF06632384B3DF0DBFB22462B463DF041
:102C30002DF83DF0ABFA80B230814FF42571484356
:102C4000000BB080F088401C80B2F080C82815D3FB
:102C5000F78001212D4804F053FC03230122B8B171
:102C60002B48006890B13078401CC0B23070042806
:102C700000D33270777000E002E0B780BDE8F081E9
:102C8000B078C828BAD2401CB070B7E73370F1E70B
:102C9000B08800B93370317874780C4300D1727009
:102CA00059B10224012913D002291BD00329E5D1EF
:102CB000B0F5C37FE2D23470E0E7B0F5AF7F02D267
:102CC000FF203070DAE7B0F5B97FD7D93270D5E799
:102CD000B0F5B77F01D23770D0E7B0F5BF7FCDD365
:102CE0003470CBE7B0F5BC7F01D83270C6E7B0F5E1
:102CF000C57FC3D93370C1E7B40500201E00002092
:102D00009A9999999999A93F6666EE3F0008014002
:102D1000300122422DE9FF5F8146DDE90E768B46C8
:102D20009246DFF8C880B6FBF8F03DF0C4FA304AAE
:102D3000304B3DF055FB3BF09BFA04460D46B9EB9A
:102D4000070000D540423DF04EFA22462B463DF0AA
:102D500047FB0022284B3DF043FB0022274B3DF070
:102D600051F83DF013FA8146B6FBF8F03DF0A3FAB6
:102D70001F4A204B3DF034FB3BF07AFA04460D46E7
:102D8000BAEB070000D540423DF02DFA22462B4613
:102D90003DF026FB0022184B3DF022FB0022174B92
:102DA0003DF030F83DF0F2F90146BBEB060000D5EE
:102DB00040424FF49A7250430A2390FBF3F2039877
:102DC000801B00D540424FF49A74604390FBF3F0AF
:102DD000A9FB0003A1FB0212401A00D54042642166
:102DE00090FBF1F004B0BDE8F09F000080EE3600EB
:102DF000E49C52A246DF913F004073400000244013
:102E00002DE9FC5F8146884693464FF0804AD9F809
:102E10000800D9F80C10002253463BF0DBFC0446B6
:102E20000D46D9F80000D9F80410002253463BF0B3
:102E3000D1FC22462B463DF0F9FC3CF063FDD9F86D
:102E40000020D9F804303CF0DDFF06460F46002292
:102E5000D8F80800D8F80C1013463DF085FA03D2D4
:102E60005A48FF21017002E0584801210170D8F84A
:102E70000000D8F80410564A564B3DF0B1FA3CF029
:102E8000F1FC00224FF080433BF0A4FC04460D46C9
:102E900000224FF08043304639463BF09BFC2246EF
:102EA0002B463DF09DFA00224B4B3DF0CDFB3CF014
:102EB00029FD02460B46D9F80000D9F804103CF071
:102EC000A1FF04460D46D8F80800D8F80C10404A77
:102ED000404B3DF085FA3BF0CBF981468A46D8F865
:102EE0000000D8F804103A4A3A4B3DF079FA3BF02A
:102EF000BFF9CDE90001D8F81020D8F814302046E9
:102F000029463CF0C3FEDDE900233DF069FA4A465C
:102F100053463DF065FACBF80000CBF80410D8F822
:102F20000800D8F80C102A4A2A4B3DF059FA3CF018
:102F300099FCCDE90001D8F80000D8F80410244A23
:102F4000244B3DF04DFA3BF093F981468A46D8F880
:102F50001020D8F81430204629463CF097FE4A4607
:102F600053463DF03DFADDE900233DF039FACBF858
:102F70000800CBF80C10D8F80000D8F80410144A58
:102F8000144B3DF02DFA3CF06DFC81468A46002240
:102F90004FF08043304639463BF01CFC00220E4B7C
:102FA0003DF052FB22462B463DF01AFAD8F810208D
:102FB000D8F814303CF06AFE4A4653463DF010FA09
:102FC000CBF81000CBF81410BDE8FC9FB50500202D
:102FD000916B50A246DF913F0000F03F10B5FFF724
:102FE000F9FCBDE810400120FFF7FCBD10B500243E
:102FF00064203BF0A1F900F091FA20B1641CE4B226
:10300000062CF5D310BD4FF4FA703BF095F900F0A3
:1030100057FA0149088010BDAC05002010B539F001
:1030200081FDBDE8104004F043B904F0D3BA0000BC
:1030300010B500F047F8FFF7F1FF124901200860D2
:103040001BF000FC10490020088000F043F8FFF757
:10305000ECFF02F0BEF8FFF7C1FF00F055F800F0FA
:103060005DF800F064F8FFF7C1FF02F099FF07492F
:10307000FF20096881F8540004F0B2F9BDE810405F
:1030800004F016B98481214236000020A8050020F2
:1030900070B5C8242BF06CFB37F024FC084D0026DB
:1030A00009E001203BF048F9287800B1C8241F2826
:1030B00004D000B12E70641EE4B2F2D270BD0000E4
:1030C0002C00002010B537F05BFABDE8104030F05E
:1030D00067BB000010B5052140F2833037F024FCB7
:1030E000084C40F23E31204637F0DAFC962120466B
:1030F00037F0D6FC2046BDE810404FF4C87137F0D9
:10310000CFBC00000004004010B533F087FD024939
:103110000020086010BD0000B481224210B53CF0D0
:103120003DFB33F097FDBDE8104036F011BB10B504
:1031300036F08CFAC8203BF0FFF8BDE8104036F0BE
:1031400019BA4FF4E1303CF035BC00EBD10001F08E
:1031500007020078012191400840002801D0012099
:1031600070470020704710B501F0070400EBD10153
:103170000123A3400878002A02D01843087010BD2C
:103180009843087010BDFEE70FB470B50A9800238D
:10319000002825D006994EF66020814202DA09996E
:1031A000814205DB0699814211DB099981420EDBE0
:1031B00009990698884203DD09990698401A02E0A9
:1031C00006990998401A00EB8000430008E009992D
:1031D00006980844A0F56A40603800EB8000430080
:1031E00008990598884203D908990598401A02E081
:1031F00005990898401AC10D4FF00A054FF0640276
:103200000ED0C10E12D0B0FBF2F14FF49A704143D0
:10321000079C0498A04211D9079C0498001B10E059
:103220004FF49A714843B0FBF2F1F1E7B0FBF5F0CF
:103230004FF49A714843B0FBF5F1E9E7049C079815
:10324000001B114CC60D648A13D0C60E15D0B0FBFE
:10325000F2F26243A1FB0101E2FB0201E3FB030185
:103260003DF03CF83CF04EFB70BC5DF814EB3CF0DC
:103270008DBF4443B4FBF2F2ECE7B0FBF5F06043E2
:10328000B0FBF5F2E6E70000749A002010B54FF4A9
:10329000003000F023F84FF4002000F01FF8084C35
:1032A0000021204600F026F8054A4FF40051583A14
:1032B000D1652046BDE81040012100F01BB8000098
:1032C00058000240C10002D5024908607047024917
:1032D000486070470404024000000240C10002D56B
:1032E0000249086070470249486070470404024080
:1032F00000000240002904D0016841F00101016092
:10330000704701684FF6FE7211400160704700007F
:1033100001684FF6FE7211400160002101604160BA
:103320008160C1603649364A0839904204D1486804
:1033300040F00F0048607047314A1432904204D187
:10334000486840F0F000486070472D4A28329042AB
:1033500004D1486840F4706048607047284A3C32A5
:10336000904204D1486840F4704048607047244A55
:103370005032904204D1486840F470204860704751
:103380001F4A6432904204D1486840F4700048609B
:1033900070471B4A7832904204D1486840F0706010
:1033A00048607047174A111F904204D1086840F0E6
:1033B0000F0008607047134A1432904204D1086825
:1033C00040F0F000086070470E4A2832904204D165
:1033D000086840F47060086070470A4A3C329042C6
:1033E00004D1086840F4704008607047054A5032C4
:1033F0009042FAD1086840F47020086070470000DD
:103400000800024008040240406880B27047002A69
:1034100003D002680A430260704702688A43026070
:10342000704730B5026847F6F0739A430C6A8B68B0
:103430002343D1E904452C4323438C692343CC69BE
:1034400023434C6A23438C6A234313430360CA68B3
:1034500042600A6882604968C16030BD70B500246E
:103460001548016821F470410160016841F4004190
:103470000160124D04E0641CE4B201203AF070FFD8
:10348000D5F80C0108B1C82CF5D3C82C01D3012004
:1034900070BD002404E0641CE4B201203AF060FF37
:1034A000D5F80C0108B9F02CF5D3F02C01D301208C
:1034B00070BD002070BD00000010014000002242DD
:1034C00070B500F0A1F800F083F8FFF7C7FFCC203B
:1034D00000F0A8F8BE2000F0A5F800F069F8044656
:1034E00000F066F8072805D9C043C0B2E143CCB26A
:1034F000002500E001250002204400B23CF073FEEC
:103500000022054B3CF06CFF3CF010FE00B2002D99
:1035100001D1404200B270BD0000E43F38B5012146
:10352000102036F09FF90820ADF8000010208DF82B
:10353000030003208DF80200064C6946204603F084
:103540005DFF0821204603F0EBFF00F041F8FFF794
:1035500085FF38BD0010014070B5134C206820F481
:1035600070402060206840F4405020600F4D0020E3
:10357000286002203AF0F4FE01202860206820F440
:1035800070402060206840F4004020600C203AF039
:10359000E7FE55F8800C08B1012400E00024322039
:1035A0003AF0DEFE204670BD001001408C01224240
:1035B00070B500250124FFF7CFFFC00140EA550098
:1035C000C5B2641CE4B2082CF5D9284670BD0000D1
:1035D00010B50B48016821F470410160016841F4A5
:1035E00040510160074C0020206040F2EE203AF08C
:1035F000B7FE01202060BDE810400F203AF0B0BEB9
:10360000001001408C01224210B5FFF7E1FFFFF7E7
:1036100025FFCC2000F006F8BDE81040442000F063
:1036200001B800002DE9F04105461648016821F473
:1036300070410160016841F4405101600124124E63
:1036400000274FF0010805F001006D0850B1C6F8E1
:103650008C7102203AF084FEC6F88C813C203AF04E
:103660007FFE09E0C6F88C713C203AF079FEC6F87E
:103670008C8102203AF074FE641CE4B2082CE2D97A
:10368000BDE8F08100100140000022422DE9F84F12
:10369000814600201823009043A28821184630F06C
:1036A0003DFF4FF4805B5A4643494FF4504039F098
:1036B000DBF9DFF808A1DAF8000090F83C1040A030
:1036C000FCF77EFE00244FF00A0824273A4E5CE007
:1036D000B4FBF7F000EBC00016F82000FF285DD027
:1036E000B4FBF7F000EBC00006EB80004078FF2849
:1036F00054D0B4FBF7F007FB1040E0BBB4FBF7F18C
:1037000032A0FCF75DFEB9F1010F38D1B4FBF7F040
:103710004FF4401101EB00305A462E4939F0A4F91C
:10372000002510E0B5FBF8F008FB105020B9B5FB00
:10373000F8F129A0FCF744FE2648415D29A0FCF7DA
:103740003FFE6D1CADB2B4FBF7F000EBC00006EB22
:103750008000017CB4FBF7F000EBC00006EB8000BA
:10376000C07B01EB002000EB8000B5EB400FD9D30C
:10377000B4FBF7F100E002E01CA0FCF721FE315D94
:1037800018A0FCF71DFE641CA4B2DAF8000090F843
:103790003C0000EBC000B4EB800F99D3BDE8F84FBC
:1037A00015A0FCF70DBE0000CEC4BCFECAE4B3F603
:1037B0002E2E2E202020200088AC0020A8050020DE
:1037C000CEC4BCFECAFD3D25640000000D0A256480
:1037D0003A000000D02B00200D0A092D2D2D256464
:1037E0003A00000025303258000000000D0A092D73
:1037F0002D25643A0D0A0000CEC4BCFE454E44009F
:103800002DE9F04FAFB000244FF6FF702BF0DEF83B
:10381000FE4A1080FE4A40F2FF701080FD490020F1
:103820000880A223EC22702102202FF0D1FD29462E
:10383000F9A0FCF7C5FDF9A1FA48FCF7A1FF417911
:103840003039FA480125471C2E97871C2D97C71C35
:103850002C97071D2B97471D2A97871D2997C71D52
:1038600028977F1C27977F1C26977F1C25977F1CF6
:1038700024977F1C23977F1C22977F1C21977F1CF6
:1038800020977F1C1F977F1C1E977F1C1D977F1CF6
:103890001C977F1C1B977F1C1A977F1C19977F1CF6
:1038A00018977F1C17977F1C16977F1C15977F1CF6
:1038B00014977F1C13977F1C12977F1C1F30CDE934
:1038C0001007D94A4FF420536FF02F0640F6340901
:1038D000032923D001297CD002291CD1CB494DF6E4
:1038E000E6000880D248006890F83480B8F1640F90
:1038F000C1F032801823CFA2A4213020009530F0EF
:103900000DFE1823CEA2C6213020009530F006FE11
:10391000CFA0FCF755FD2FB0BDE8F08FBB494DF6A9
:10392000E6000880C249086890F82770CFB10024EB
:103930001823CBA293213020009430F0EFFD182300
:10394000CBA2B5213020009430F0E8FD1823CCA2A2
:10395000D7213020009430F0E1FDCCA0FCF730FD01
:10396000D9E790F83670642F11D31823B1A2A4219F
:103970003020009530F0D2FD1823B1A2C6213020AE
:10398000009530F0CBFDB2A0FCF71AFDC3E710881C
:10399000C0F30E00984221D91823C0A284211E2012
:1039A000009530F0BBFD1823C0A2A6213020009561
:1039B00030F0B4FD1823C1A2C8211846009530F09C
:1039C000ADFD1823C2A2EA212420009530F0A6FD07
:1039D00000E0DDE3C2A0FCF7F3FC9CE7C4A1914842
:1039E000FCF7CEFE81784279303901EB4103C3EB1D
:1039F000C11102EBC103C2786421303A4A43017914
:103A0000303901EB810102EB41011944303989B2AF
:103A1000ADF814108279C379303A02EB820206EBDA
:103A200042021A44D2B28DF81620037A90F809C0E7
:103A3000303B03EB830306EB43036344DBB28DF8B7
:103A4000173090F80AC090F80B80ACF1300C0CEBFA
:103A50008C0C06EB4C0CC4444FFA8CFC8DF818C04F
:103A600090F80D80007B303800EB800006EB4000C2
:103A70004044C0B28DF81900494508D80C2A06D830
:103A80001F2B04D8BCF1180F01DC3C2820D90024DE
:103A9000182398A284213020009430F03FFD182391
:103AA00097A2A6213020009430F038FD182398A268
:103AB000C8213020009530F031FD182398A2EA216A
:103AC0003020009530F02AFD98A0FCF779FC22E721
:103AD0000026182399A2A4212420009630F01EFD70
:103AE00018239AA2C6212420009630F017FDD7B3E0
:103AF0004FF480524D49994838F0B6FF781E00EBDC
:103B0000C0014A4800EB81000E30C17C027D0904EF
:103B100001EB0222417D1144914A03781E0443784F
:103B2000807806EB0323184440F29913B0FBF3F0BE
:103B3000401C01EB0030906648A13A48FCF71AFEA1
:103B400046A10020FCF716FE002600285AD072B6C7
:103B500098B103A9009102AB04AA82A1FCF7ECFD85
:103B600003280ED000E004E081A0FCF729FC62B637
:103B7000D1E67B4986488866DEE7022C44D262B6ED
:103B8000C9E6DFF81092049849463DF0F7F83DF099
:103B9000A9F88046494602983DF0F0F83DF0A2F8B9
:103BA000814603983DF082F800EB800042007A499C
:103BB000B9FBF1F000060890B9FBF1F001FB1090A1
:103BC000C0EB001080006423B0FBF3F0DDF820C0F0
:103BD00040EA0C000890B8FBF1F000060790B8FB33
:103BE000F1F001FB1080C0EB00108000B0FBF3F09F
:103BF000079908430790CDF82E20079818B1089828
:103C000008B1CBE064E1CCE080E1000034000020AA
:103C10003600002038000020257300004D6F6465D9
:103C20003A0000007ECF0020BC050020D02B0020F1
:103C3000A80500202054686520696D706F727400BB
:103C400066696C652069732066756C6C0000000005
:103C50000D0A092D2D4572726F7220310D0A000078
:103C60004E6F206C6F6E67697475646500000000AC
:103C7000616E64206C617469747564650000000095
:103C8000696E666F726D6174696F6E000D0A092D41
:103C90002D4572726F7220300D0A00005468652045
:103CA000696D706F72742066696C65006973207449
:103CB0006F6F206C617267650000000054686520BA
:103CC00066696C65206D7573742062650000000084
:103CD0006C657373207468616E2031304B42000054
:103CE0000D0A092D2D4572726F7220320D0A0000E7
:103CF000543A000020547261636B2066696C650061
:103D0000666F726D6174206572726F7200000000E0
:103D1000202054696D6520666F726D61740000002B
:103D2000202020206572726F720000000D0A092D9C
:103D30002D4572726F7220350D0A00002020204937
:103D40006D706F727420696E2000000070726F6772
:103D5000726573732E2E2E2E2E2E000000D0410081
:103D6000D802002025662C25662C25660000000060
:103D70000D0A092D2D4572726F72202CBEADCEB387
:103D8000B6C8B8F1CABDB4EDCEF30D0A000000000C
:103D900000904E008096184B80969800B4F5FA7FFC
:103DA00022D900241823FBA284211220009430F091
:103DB000B5FB1823FCA2A6211220009430F0AEFB24
:103DC0001823FEA2C8211220009530F0A7FB18236B
:103DD000FEA2EA211220009530F0A0FBAFF27000A5
:103DE000FCF7EEFA62B696E50798020E701C81B2F7
:103DF000FA488255079A130C4A1C92B24354079909
:103E00000B0A511C89B283544A1C079B92B243543B
:103E100008990B0E511C89B28354089A130C4A1C42
:103E200092B2435408990B0A511C89B283544A1C1C
:103E3000089B92B24354BDF82E100B0A511C89B254
:103E400083549DF82E204B1C9EB2425440F2991888
:103E5000B4FBF8F1DFF88893D9F8680000EB013182
:103E6000B1F5000F1FD2B4FBF8F108FB114199B96D
:103E7000B4FBF8F100EB013038F0B2FE64B1B4FBF2
:103E8000F8F0D9F86810401E01EB00304FF4805272
:103E9000D24938F0C3FE0026641CAFF24021002056
:103EA000FCF768FC54E61823AFF27822A4213020F6
:103EB000009530F033FB1823AFF27C22C62130206E
:103EC000009530F02BFBC7A0FCF77AFA62B622E52A
:103ED00000241823AFF2782293213020009430F090
:103EE0001DFB1823AFF27822B5213020009430F06A
:103EF00015FB1823AFF27822D7213020009430F040
:103F00000DFBBFA0FCF75CFA62B604E540F2991025
:103F1000B4FBF0F1B24804EB8402806E00EB013098
:103F20004FF6FF7101EA4202AC4938F077FE34F0F7
:103F3000B5FD00250026E8E040F29910864200D049
:103F40005DB9B5FBF0F1A6484FF48052806E00EBEE
:103F50000130A24938F088FD0026A04A06EB860110
:103F600012F81100B4280BD802EB410211795A293A
:103F700006D8052804D3052902D3B4F5FA7F15D94C
:103F800000241823AFF29422A6213020009430F0B0
:103F9000C5FA1823AFF29822C6213020009430F0E1
:103FA000BDFA9EA0FCF70CFA62B6B4E4D37892F89E
:103FB00002C003EB00605378DFF870821B0403EB50
:103FC0000C231844C8F80000D37992F806C003EB1C
:103FD000016153791B0403EB0C231944C8F8041046
:103FE000537A127A03EB0222C8F808205DBBDFF88F
:103FF00040A2CAF808208F4B07C38F4B07C320F09D
:104000007F4303EB43035B004FF00A09B3FBF9FC6A
:10401000030E46F6DD5B03FB0BF30CEBC31CCAF887
:1040200000C021F07F4303EB43035B00B3FBF9F9CE
:104030000B0E03FB0BF309EBC319CAF804907F4B7B
:10404000C3E900C99A60DFF8ECC1DCF8003098429F
:1040500000D90346CCF80030DCF80430994200D98E
:104060000B46CCF80430DCF808309A4200DD1346E9
:10407000CCF80830DFF8C0C1DCF80030984200D33B
:104080001846CCF80000DCF80400814200D3014659
:10409000CCF80410DCF80800824200DB0246CCF8C1
:1040A0000820F02036F044F8D8F800000A2220F06A
:1040B0007F4101EB41014900B1FBF2F1000E46F6F0
:1040C000DD53584301EBC010C8F80000D8F80400D5
:1040D00020F07F4101EB41014900B1FBF2F1000EFC
:1040E0001A46504301EBC010C8F8040033F0FEFB41
:1040F00032F010FE102036F01BF85048B8E80E00E1
:104100000EC06D1CADB2761CB6B2A542FFF414AF62
:10411000002036F00DF84A4D4FF480522F492846C2
:1041200038F0A2FC07EBC7012C4B890007F1900087
:10413000C8542E9ABDF8140088542D989DF8162066
:104140000A542C989DF817200A542B989DF8182093
:104150000A542A989DF819200A543A48026850686F
:10416000060E29980E545068060C28980E54908814
:10417000060A27980E54269E107988559068060ED8
:1041800025980E549068060C24980E5410895BE014
:10419000E9E00000547261636B2066696C6520661B
:1041A0006F726D6174000000206572726F72204C36
:1041B0006F6E676974756465000000002020616E91
:1041C00064206C6174697475646500002020666FFA
:1041D000726D6174206572726F720000D02B0020C6
:1041E000D80200200D0A092D2D4572726F7220B57C
:1041F000BCC8EBCEC4BCFED2D1C2FA0D0A0000008E
:104200000D0A092D2D4572726F7220CEDEBEADCE25
:10421000B3B6C8D0C5CFA20D0A0000000D0A092D03
:104220002D4572726F7220380D0A0000C09B00206D
:10423000A89B0020CC9B0020D89B0020B49B002092
:1042400000D0410034050020060A23980E54107A4D
:10425000229A88542198220C0A542098220A0A543F
:104260001F980C54FD481E9C0268160E0E551D9C8E
:10427000160C0E551C9C160A0E551B9C0A55F84C24
:104280001A9E2268170E8F55199E170C8F55189E6F
:10429000170A8F55179E8A5542681698160E0E54A7
:1042A0001598160C0E541498160A0E5413980A54A6
:1042B0006068129A040E8C54119A040C8C54109A53
:1042C000040A8C5403F120028854E648806E040CE2
:1042D000521C8C54040A521C8C542333C854284654
:1042E00038F07EFC4FF48052DF49284638F096FCC7
:1042F0004FF48052DC49284638F0B6FBDB480068B2
:1043000010F8361F491C017003F06AF8D8494FF6BF
:10431000FF700880D7490020088000909623DC2297
:1043200078210A202FF0BCF9D1494DF6E60008802B
:1043300000201823AFF2446200909321302030F027
:10434000EDF8002000901823CBA2B521302030F0EA
:10435000E5F8002000901823CAA2D721302030F0C1
:10436000DDF862B604E4C2494DF6E6000880BF48B5
:104370000068448D642C22D31823C6A284211846D9
:10438000009530F0CBF81823C6A2A6211846009558
:1043900030F0C4F81823AFF2DC62C821184600954B
:1043A00030F0BCF81823AFF2D862EA21242000953F
:1043B00030F0B4F8AFF26870FCF702F813E510883B
:1043C000C0F30E00984224D91823AFF23072842132
:1043D0001E20009530F0A2F81823AFF23072A6210B
:1043E0003020009530F09AF81823AFF23072C821CF
:1043F0001846009530F092F81823AFF22C72EA219B
:104400002420009530F08AF8AFF22C70FBF7D8FF2B
:10441000E9E4AFF22471A748FCF7B2F9002877D09D
:10442000811C42798078303800EB4003C3EBC01028
:1044300002EBC0034A786420303A4243887830382F
:1044400000EB800002EB40001844303880B2ADF839
:1044500014000F900A794B79303A02EB820206EB96
:1044600042021A44D7B28DF816708A79CB79303A65
:1044700002EB820206EB42021A4402F0FF088DF8BA
:1044800017800A7A4B7A303A02EB820206EB42023C
:104490001A4452B28DF81820CB7A897A303901EB60
:1044A000810106EB41011944CEB28DF819604845EF
:1044B00008D80C2F06D8B8F11F0F03D8182A01DC32
:1044C0003C2E39D9002418237BA284212A20009471
:1044D00030F024F81823AFF2D872A62130200094CF
:1044E00030F01CF81823AFF2D872C82130200095A4
:1044F00030F014F81823AFF2D872EA21302000957A
:1045000030F00CF800E003E06FA0FBF759FF6AE41D
:104510000024182368A2A6212A2000942FF0FEFF71
:104520001823AFF62402C621302000942FF0F6FFA6
:104530006CA0FBF745FF56E44FF000091823AFF6D7
:104540000402A4212420CDF800902FF0E7FF1823C7
:10455000AFF60802C6212420CDF800902FF0DEFF30
:104560004FF4805A51464048FCF7DEF904F16400EC
:104570003C498346000A88665E49524601EB00309A
:10458000394938F071FA0BF0FF000D9058A14948F5
:10459000FCF7F0F856A10020FCF7ECF800285CD0FE
:1045A00072B603A902AB04AA0091AFF64801FCF76A
:1045B000C3F8032826D018234FA284210620CDF863
:1045C00000902FF0ABFF1823AFF22442A621122057
:1045D000CDF800902FF0A2FF1823AFF22042C8219F
:1045E000122000952FF09AFF1823AFF22042EA2103
:1045F000122000952FF092FFAFF68C00FBF7E0FE43
:1046000062B664E404984FF40003984201DB102181
:1046100000E02021029A9A4201DB012200E00222FE
:1046200011443B4A82F861100E913A49884202D304
:1046300080F0004004900298884202D380F000404D
:104640000290DFF8D4B0049859463CF097FB3CF058
:1046500049FB82465946029860E05CE1CC9B002011
:10466000D89B0020D8020020D02B0020A8050020D5
:1046700034000020360000202020696D706F7274B5
:10468000656400007375636365737366756C6C793C
:104690000000000020202054686520696D706F7252
:1046A00074200000202066696C652069732066759F
:1046B0006C6C00007ECF0020576179706F696E745A
:1046C0002066696C650000000D0A092D2D45727287
:1046D0006F7220CAB1BCE4B8F1CABDB4EDCEF30D1F
:1046E0000A0000000D0A092D2D4572726F722033E9
:1046F0000D0A000000104000576179706F696E74F8
:104700002066696C6520666F726D61740000000040
:10471000D8000020000080808096184B3CF02EFBD3
:104720003CF0E0FA834603983CF0C0FA00EB8000CE
:104730004200FE49BBFBF1F000060890BBFBF1F024
:1047400001FB10B0C0EB001080006423B0FBF3F05D
:10475000DDF820C040EA0C000890BAFBF1F000063A
:104760000790BAFBF1F001FB10A0C0EB0010800035
:10477000B0FBF3F0079908430790CDF82E20079877
:10478000F0B30898E0B3EA480D9A04F1900100EB09
:10479000021001700F994170877080F803809DF8B6
:1047A0001810017146710799090E81710799090C5A
:1047B000C1710799090A0172079941720899090E96
:1047C00081720899090CC1720899090A0173089944
:1047D0004173BDF82E10090A81739DF82E10C17324
:1047E000D44A40F6B830918D81427FD2D24D2968AB
:1047F000488D91F82C31184491F83730184400E076
:104800004BE0401C80B2908548850E993BF0CEF974
:1048100002F0E6FDC94ECA4FB06E07EB003038F02B
:10482000DFF9B06E4FF4805207EB0030C04938F02A
:10483000F5F9641C2868448502F0D2FDC14C4FF69E
:10484000FF702080C048A0F800909623DC227821D9
:104850000A20CDF800902EF023FF4DF6E6002080D0
:104860001823AFF2AC1293212A20CDF800902FF03C
:1048700055FE1823AFF20022B5213020CDF800906C
:104880002FF04CFE1823AFF20422D7213020CDF8B0
:1048900000902FF043FE62B664E51823AFF2A81231
:1048A00084210620CDF800902FF038FE1823AFF2B7
:1048B0000872A6211220CDF800902FF02FFE1823A9
:1048C000AFF20872C821122000952FF027FE18239E
:1048D000AFF20872EA21122000952FF01FFE00E0CF
:1048E00004E09AA0FBF76CFD62B63BE51823AFF637
:1048F000BC42A421302000952FF010FE1823AFF603
:10490000C042C621302000952FF008FE93A0FBF78F
:1049100057FD62B626E51823AFF6BC42932130203E
:10492000CDF800902FF0FAFD1823AFF6BC42B52168
:104930003020CDF800902FF0F1FD1823AFF6C042E3
:10494000D7213020CDF800902FF0E8FDAFF2507065
:10495000FBF736FD62B605E51088C0F30E009842FD
:1049600024D91823AFF6CC4284211E2000952FF0C5
:10497000D5FD1823AFF6CC42A621302000952FF0AC
:10498000CDFD1823AFF6CC42C821184600952FF074
:10499000C5FD1823AFF6C842EA21242000952FF068
:1049A000BDFDAFF6C440FBF70BFDDBE4AFF6C04145
:1049B0006E48FBF7E5FE81784279303901EB41031F
:1049C000C3EBC11102EBC103C2786421303A4A4300
:1049D0000179303901EB810102EB41011944303991
:1049E0008BB2ADF814308179C279303901EB810195
:1049F00006EB41011144CFB28DF81670017A427A6C
:104A0000303901EB810106EB41011144C9B28DF847
:104A10001710827A90F80BC0303A02EB820206EB54
:104A20004202624452B28DF8182090F80DC0007B0B
:104A3000303800EB800006EB40006044C0B28DF8D7
:104A400019004B4507D80C2F05D81F2903D8182A61
:104A500001DC3C2824D90024182345A284213020DD
:104A600000942FF05BFD1823AFF66C52A621302086
:104A700000942FF053FD1823AFF66C52C82130205C
:104A800000952FF04BFD1823AFF66C52EA21302031
:104A900000952FF043FDAFF66C50FBF791FC61E4FD
:104AA00000261823AFF66C52A421242000962FF084
:104AB00035FD1823AFF66C52C621242000962FF046
:104AC0002DFD2E484FF4805900EB08374A4618490F
:104AD000384638F0A3F820A12448FBF74BFE1EA16E
:104AE0000020FBF747FE72B600287DD14AE1022C78
:104AF0007BD262B636E403A902AB04AA0091AFF6FA
:104B00009C51FBF719FE03285AD0002418231CA23D
:104B10008421122000942FF001FD1823AFF67812A3
:104B2000A621122000942FF0F9FC33E08096980023
:104B3000D02B0020D8010020A8050020D80200209A
:104B40000010400034000020360000200D0A092D1E
:104B50002D4572726F7220360D0A00000D0A092D64
:104B60002D4572726F7220370D0A00007ECF002033
:104B700020526F7574652066696C650000104200F4
:104B8000526F7574652066696C6520666F726D6121
:104B9000740000001823AFF6DC12C8211220009523
:104BA0002FF0BCFC1823AFF6DC12EA21122000958E
:104BB0002FF0B4FCAFF64860FBF702FC62B627E4C6
:104BC000DFF824B4049859463CF0D8F83CF08AF851
:104BD0008246594602983CF0D1F83CF083F883466F
:104BE00003983CF063F801E0B3E0EAE000EB8000FA
:104BF0004200FE48BBFBF0F109060891BBFBF0F157
:104C000000FB11B1C1EB01118B006421B3FBF1F387
:104C1000DDF820C043EA0C030893BAFBF0F31B064F
:104C20000793BAFBF0F300FB13A0C0EB0010800069
:104C3000B0FBF1F0079908430790CDF82E200798B4
:104C400020B1089810B1B4F5FA7F25D900241823B3
:104C5000AFF2D4028421122000942FF05FFC1823BD
:104C6000AFF6BC22A621122000942FF057FC182387
:104C7000AFF6B822C821122000952FF04FFC182360
:104C8000AFF6B822EA21122000952FF047FCD8A0F9
:104C9000FBF796FB62B63AE40798020E701C81B2ED
:104CA000DA488255079A130C4A1C92B2435407996A
:104CB0000B0A511C89B283544A1C079B92B243547D
:104CC00008990B0E511C89B28354089A130C4A1C84
:104CD00092B2435408990B0A511C89B283544A1C5E
:104CE000089B92B24354BDF82E100B0A511C89B296
:104CF00083549DF82E204B1C9EB2425440F2991AC8
:104D0000B4FBFAF1DFF808B3C24ADBF8680000EB45
:104D10000131914221D2B4FBFAF10AFB114191B960
:104D2000B4FBFAF100EB013037F05AFF5CB1B4FB91
:104D3000FAF0DBF86810401E01EB00304A46B34938
:104D400037F06CFF0026641CAFF2F4110020FBF773
:104D500011FD00287FF4CFAEC9E61823AE4AA42186
:104D6000302000952FF0DAFBAB4A18230C32C62115
:104D7000302000952FF0D2FBAFF69830FBF720FBE8
:104D800062B63EE4A44A002418232C32932130203A
:104D900000942FF0C3FBA04A18233C32B5213020E9
:104DA00000942FF0BBFB9C4A18234C32D7213020B3
:104DB00000942FF0B3FBAFF6B830FBF701FB62B6FF
:104DC0001FE4384637F00CFF38464FF480528F49C5
:104DD00037F024FF33F062FE00260025F5E0A5F54C
:104DE0008070993800D036B938464FF480528749E0
:104DF00037F03AFE0025854A05EB850012F81010C1
:104E0000B4290BD802EB400002795A2A06D80529AA
:104E100004D3052A02D3B4F5FA7F1DD90024182340
:104E2000AFF2B4229321302000942FF077FB7A4A1E
:104E30001823CC32B521302000942FF06FFB1823BB
:104E400076A2D7212A2000942FF068FBAFF63440D9
:104E5000FBF7B6FA62B61FE5C37890F802C003EB21
:104E600001614378DFF8C4911B0403EB0C23194460
:104E7000C9F80010C37990F806C003EB02624379C9
:104E80001B0403EB0C231A44C9F80420437A007A6C
:104E900003EB0020C9F80800BEBB654B9860DFF843
:104EA00094C1CCE90012CCF80800DFF88CC1CCE941
:104EB0000012CCF8080021F07F4C0CEB4C0C4FEAB0
:104EC0004C0C4FF00A0EBCFBFEFA4FEA116C46F692
:104ED000DD5B0CFB0BFC0AEBCC1CC3F800C022F022
:104EE0007F4A0AEB4A0A4FEA4A0ABAFBFEFB4FEA3C
:104EF000126A46F6DD5E0AFB0EFA0BEBCA1AC3F81D
:104F000004A04E4BC3E900CA9860DFF828C1DCF862
:104F10000030994200D90B46CCF80030DCF8043060
:104F20009A4200D91346CCF80430DCF80830984295
:104F300000DD0346CCF808303F4BD3F800C0614594
:104F400000D36146196059688A4200D30A465A6004
:104F50009968884200DB08469860F02035F0E8F850
:104F6000D9F800000A2220F07F4101EB41014900FD
:104F7000B1FBF2F1000E46F6DD53584301EBC010D1
:104F8000C9F80000D9F8040020F07F4101EB41018D
:104F90004900B1FBF2F1000E1A46504301EBC0107C
:104FA000C9F8040032F0A2FC31F0B4FE102035F054
:104FB000BFF82248D9E90113D9F80020C0E901134C
:104FC0000260761CB6B26D1CADB2A642FFF407AF0C
:104FD000002035F0ADF81A4D4FF480520B492846A9
:104FE00037F042FD2EE000008096184B8096980026
:104FF0000D0A092D2D4572726F7220BEADCEB3B66B
:10500000C8B8F1CABDB4EDCEF30D0A00D02B002014
:10501000D802002000904E00343C000853746F7298
:10502000616765206572726F72000000C09B00208E
:10503000A89B0020CC9B0020D89B0020B49B002084
:1050400000B041005B484FEA481108F190020A5451
:105050002E9ABDF8140088542D989DF816200A54F5
:105060002C989DF817200A542B989DF818200A5464
:105070002A989DF819200A544F4802685068030E78
:1050800029980B545068030C28980B549088030AF5
:1050900027980B54269B1079C8549068030E2598C6
:1050A0000B549068030C24980B541089030A23981E
:1050B0000B542298127A0A542198220A0A542098F2
:1050C0000C543E481F9B0268140ECC541E9B140CBB
:1050D000CC541D9B140ACC541C9BCA54384B1B9CAB
:1050E0001A68160E0E551A9C160C0E55199C160AA7
:1050F0000E55189C0A5542681798140E0C541698B1
:10510000140C0C541598140A0C5414980A5458682A
:10511000139A030E8B54129A030C8B54119A030AA0
:105120008B54109A8854284637F05AFD4FF4805219
:105130002049284637F072FD4FF480521D49284619
:1051400037F092FC1F48006810F8341F491C0170AA
:1051500002F046F91C484FF6FF7101801B49002000
:10516000088000909623DC2278210A202EF098FAFD
:1051700015494DF6E600088000201823AFF21062B2
:105180000090932130202FF0C9F900201823AFF6AA
:1051900018320090B52130202FF0C0F900201823DC
:1051A000AFF620320090D72130202FF0B7F962B649
:1051B00075E40000D02B002034050020CC9B00209B
:1051C000D89B0020A80500203400002036000020D5
:1051D000704770472DE9FE4F07468B466848416B84
:1051E000006BCDE9010167A6BDF80600343884B232
:1051F000ADF8064023F04CFF4FF6FF7A504629F0F9
:10520000E5FBDFF88C91A9F8000062484FF0000838
:10521000A0F80080604901200880BDF80450BDF866
:105220000A30BDF80820214628462EF0D1F8A9F80A
:1052300000A04FF47A790D2F0CD0062F2BD0072F1A
:1052400035D0082F4AD0062F5ED2DFE807F052543F
:1052500056585A5C04F10E0081B205F1480080B244
:1052600018234EA2CDF800802FF058F9363430358F
:10527000A1B2A8B218234BA2CDF800802FF04EF9AE
:10528000484639F059F8484639F056F8BDE8FE4F1F
:10529000002004F01BBB22343035A1B2A8B2142385
:1052A00043A2CDF800802FF039F9BDE8FE8F04F15C
:1052B0000E0081B205F1280080B2142340A2CDF87F
:1052C00000802FF02BF936340A35A1B2A8B214238E
:1052D0003EA2CDF800802FF021F9E6E722342D35EB
:1052E000A1B2A8B214233DA2CDF800802FF016F988
:1052F000DBE73EA608E041A606E045A604E049A695
:1053000002E04DA600E051A63046FBF777FA404296
:1053100000EBC000F0306FF0130101EB5000BDF85E
:105320000410CDF800800844BDF8061080B21E318C
:1053300089B2122332462FF0F1F8BBF1000F0AD0E8
:1053400036341B35A1B2A8B2122345A2CDF8008095
:105350002FF0E4F809E036340E35A1B2A8B21223DA
:1053600043A2CDF800802FF0D9F8484638F0E4FF8A
:10537000484638F0E1FFBDE8FE4F002004F0A6BA31
:10538000E8000508B5E3CAFDB9FDB6E0000000007D
:105390003400002036000020380000205344BFA80D
:1053A00000000000C8DDC1BFB2BBD7E300000000B1
:1053B00045737461626C697368696E670000000010
:1053C000436F6D706C6574650000000065737461F7
:1053D000626C697368205361766500005374616B79
:1053E000656F757420736176696E6700546F6F2006
:1053F00066657720706F696E74732100546F6F203B
:105400006D616E7920706F696E7473210000000009
:1054100044697374616E636520746F6F206C6F6E86
:105420006721000044697374616E636520746F6F57
:105430002073686F7274210053706163696E672016
:10544000746F6F2073686F72742100005370616312
:10545000696E6720746F6F206C6F6E6721000000AB
:10546000556E61626C6520746F206564697400001C
:10547000556E61626C6520746F206372656174653E
:10548000210000002DE9FC4104460D462A4F100979
:1054900041D010072FD0294E062B17D0032B13D144
:1054A000B5FBF6F02649484305EBC0103AF003FF80
:1054B00000223B463AF0A6FCB5FBF6F2CDE900012E
:1054C00020A12046FAF788FFBDE8FC81B5FBF6F085
:1054D0001B49484305EBC0103AF0EDFE00223B4665
:1054E0003AF090FCB5FBF6F2CDE9000118A1204698
:1054F000FAF772FFE8E728463AF0DDFE00223B4665
:105500003AF080FC024602B02046BDE8F0410B466E
:1055100012A1FAF761BF28463AF0CDFE00223B46C1
:105520003AF070FC024602B02046BDE8F0410B465E
:105530000AA1FAF751BF00000000244080969800AD
:10554000D3CEFEFF25303364202530382E3166005F
:1055500025303264202530382E3166002530392E32
:10556000316600002DE9FF4F87B08346DDE9145412
:105570009246A94EA9493068CA7890F855009042E1
:1055800017D0C8704FF48052A549900237F06CFADA
:105590008321A448FBF7C8F93068832290F85500AE
:1055A00000EB400101EBC0109D4901449D48FBF711
:1055B00044F9306890F82300DFF86C9210F07F0017
:1055C0004FEA156725F07F4609D0012855D0974D41
:1055D000DFF85C82022872D003281AD1C8E0DFF815
:1055E000548220092AD02007934C13D0B6FBF8F040
:1055F00008FB10603AF05FFE002223463AF002FCFE
:10560000B6FBF8F3CDE900013A468CA102A8FAF7FF
:10561000E3FEF5E0B6FBF8F008FB10603AF04BFE55
:10562000002223463AF0EEFBB6FBF8F3CDE9000189
:105630003A4687A102A8FAF7CFFEE1E0B6FBF8F000
:105640003AF039FE04460D4630463AF034FE002268
:105650004B463AF0D7FB22462B463BF0E7F80022B8
:10566000804B3AF0BDFEB6FBF8F3CDE900013A46B7
:105670007DA102A8FAF7B0FEC2E0200920D02007E1
:105680000ED030463AF017FE00224B463AF0BAFBF5
:10569000CDE900013A4679A102A8FAF79DFEAFE0F4
:1056A00030463AF008FE00224B463AF0ABFBCDE91B
:1056B00000013A4675A102A8FAF78EFEA0E00EE0BE
:1056C00030463AF0F8FD00224B463AF09BFBCDE91C
:1056D00000013A4671A102A8FAF77EFE90E0200987
:1056E0002FD0200716D030463AF0E5FD00222B4699
:1056F0003AF088FB04460D4638463AF0DCFD224677
:105700002B463AF0C3FA02460B4667A102A8FAF705
:1057100063FE75E030463AF0CEFD00222B463AF0AB
:1057200071FB04460D4638463AF0C5FD22462B462D
:105730003AF0ACFA02460B465EA102A8FAF74CFE1C
:105740005EE030463AF0B7FD002243463AF05AFB9D
:1057500004460D4638463AF0AEFD22462B463AF056
:1057600095FA02460B4656A102A8FAF735FE47E025
:1057700020092FD0200716D030463AF09CFD002299
:105780002B463AF03FFB04460D4638463AF093FD6F
:1057900022462B463AF07AFA02460B464AA102A864
:1057A000FAF71AFE2CE030463AF085FD00222B462F
:1057B0003AF028FB04460D4638463AF07CFD224676
:1057C0002B463AF063FA02460B4642A102A8FAF7CA
:1057D00003FE15E030463AF06EFD002243463AF0F3
:1057E00011FB04460D4638463AF065FD22462B462D
:1057F0003AF04CFA02460B4639A102A8FAF7ECFD42
:1058000000200090534602AA584608992EF062FEE6
:105810000BB0BDE8F08F0000A80500205801002063
:1058200088AC002000190020006AF840D0126341C3
:1058300060E35641A086010000408F4020253032B1
:10584000646025303264272530352E326622000010
:10585000253033646025303264272530352E32669A
:105860002200000000004E40253364602530326481
:10587000272530352E3266220000000020253032E8
:1058800064602530372E34662700000025303364ED
:10589000602530372E346627000000002533646011
:1058A0002530372E3466270020253031302E3766DC
:1058B00060000000253031312E37666000000000A6
:1058C0002531312E37666000202530392E3666604E
:1058D00000000000253031302E36666000000000E8
:1058E0002531302E366660002DE9FC4782460C4695
:1058F0009048006890F82300DFF83C9210F07F0099
:105900004FEA146724F07F4621D001286DD0022889
:105910007AD0032819D1894D100976D0100775D097
:10592000874E8849B4FBF6F0484304EBC0103AF0C8
:10593000C2FC00222B463AF065FAB4FBF6F2CDE940
:10594000000181A15046FAF747FDBDE8FC87DFF86A
:10595000048210092AD0804C100713D0B6FBF8F04F
:1059600008FB10603AF0A7FC002223463AF04AFAFE
:10597000B6FBF8F3CDE900013A4678A15046FAF7B4
:105980002BFDE2E7B6FBF8F008FB10603AF093FC61
:10599000002223463AF036FAB6FBF8F3CDE90001CF
:1059A0003A4673A15046FAF717FDCEE7B6FBF8F07A
:1059B0003AF081FC04460D4630463AF07CFC002269
:1059C0004B463AF01FFA22462B463AF02FFF0022B0
:1059D0006C4B3AF005FDB6FBF8F3CDE900013A4611
:1059E00063A15046FAF7F8FCAFE7100923D010077F
:1059F00012D030463AF05FFC00224B463AF002FAF1
:105A00003A46CDE9000102E024E083E072E05EA1C5
:105A10005046FAF7E1FC98E730463AF04CFC002299
:105A20004B463AF0EFF9CDE900013A465AA150460B
:105A3000FAF7D2FC89E730463AF03DFC00224B46AB
:105A40003AF0E0F9CDE900013A4653A15046FAF7A1
:105A5000C3FC7AE7100934D0534C100718D03046F5
:105A60003AF029FC002223463AF0CCF904460D46D0
:105A700038463AF020FC22462B463AF007F9024617
:105A800002B05046BDE8F0470B4648A1FAF7A4BC67
:105A900030463AF010FC002223463AF0B3F90446AF
:105AA0000D4638463AF007FC22462B463AF0EEF80F
:105AB000024602B05046BDE8F0470B463EA1FAF759
:105AC0008BBC30463AF0F7FB00223E4B3AF09AF995
:105AD00004460D4638463AF0EEFB22462B463AF095
